:1000000051C011C028C018951895189518951895C5
:100010001895189518951895189518951895189578
:10002000189518951895839907C021BB94BA8299A1
:10003000FECF74BA71BA1895C3B2879905C0EC2D7A
:1000400090A020A98ABE1895C0FA36F95BBE36FF8B
:100050008BBE8ABE1895C3B2829914C036FD11C0FA
:1000600090B2DFB69820C9289080C9209C2C90942B
:1000700090A2292D282120ABC08AED3009F43068E8
:10008000DFBE1895879907C036FD03C0EC2D90A000
:1000900020A98ABE1895C0FA36F95BBE36FF8BBE22
:1000A0008ABE189500B7046000BF0FE50DBF04E0DD
:1000B0000EBF01E808B9772400EC802E04E0A02EE2
:1000C0000FE1402E00E8502E0FEFE02EF02E20E141
:1000D000E0E1F1E071922A95E9F700931E010093A7
:1000E0001F01A0E3B2E0E4E9F2E020E205910D9304
:1000F0002A95E1F7A0E2B2E0E4E8F2E020E1059120
:100100000D932A95E1F7A0E0B1E0E4EBF2E020E105
:1001100005910D932A95E1F7F1E0D2E07BBC7ABC22
:1001200079BC78BCB99ABA9A02EA0FBD09E10EBD52
:100130007FBADEBBE09A2DB377BC26BDFEBBE09A4A
:100140000DB3071531F00FE005BF00EC0ABF00E862
:100150000BBFE0E138E600241124282CBB24CC247A
:10016000992422276624332444275527BA01CA013B
:10017000DA0111277894C8B7C2FFFDCFC8BF37FF97
:100180000CC0B0901D012F2E3F77A0911B01B091A4
:100190001C011127B2FE1CE222C027FC20C01197CF
:1001A00008F0E9F4A0911B01B0911C0125FE12C0DA
:1001B000B3FC03C01127282812C0B0FC04C02224BD
:1001C000B1FCBA2407C0282811270B2D0D0F02FD02
:1001D0001CE205C0C22DB2FEC425239418A93A948E
:1001E0007AF4309016013A940E2D029506950E255C
:1001F0006694F794E794386308F0377C03FF6F2A1E
:10020000415050403AF44091100150911101415039
:1002100050403F27615070403AF460911201709154
:100220001301615070403D27019732F48091140111
:100230009091150101973A2500911701032BC02FCA
:10024000CC0FC2950C23C0911801012EC4FF08A049
:1002500000FF0024C0911A01112EC4FF18A002FF54
:10026000112401FF0CC0C0911901012FC4FF08A186
:100270000695C02F06950695C00F0C0E1C0E0ABCE5
:1002800018BC79CF000102030506080C0E121517E1
:100290001B1F2429000102030405060708090A0B95
:1002A0000C0D0E0F10111213151617191B1D1F21FF
:1002B0002427292CFF0FFF0FFF0F1FFF1F1F1FFFFA
:0402C000FF0FFFFF2E
:00000001FF
